{
    "contractName": "Transactions",
    "abi": [
        {
            "anonymous": false,
            "inputs": [
                {
                    "indexed": false,
                    "internalType": "address",
                    "name": "from",
                    "type": "address"
                },
                {
                    "indexed": false,
                    "internalType": "address",
                    "name": "receiver",
                    "type": "address"
                },
                {
                    "indexed": false,
                    "internalType": "uint256",
                    "name": "amount",
                    "type": "uint256"
                },
                {
                    "indexed": false,
                    "internalType": "string",
                    "name": "message",
                    "type": "string"
                },
                {
                    "indexed": false,
                    "internalType": "uint256",
                    "name": "timestamp",
                    "type": "uint256"
                }
            ],
            "name": "Transfer",
            "type": "event"
        },
        {
            "inputs": [
                {
                    "internalType": "address payable",
                    "name": "receiver",
                    "type": "address"
                },
                {
                    "internalType": "uint256",
                    "name": "amount",
                    "type": "uint256"
                },
                {
                    "internalType": "string",
                    "name": "message",
                    "type": "string"
                }
            ],
            "name": "addToBlockchain",
            "outputs": [],
            "stateMutability": "nonpayable",
            "type": "function"
        },
        {
            "inputs": [],
            "name": "getAllTransactions",
            "outputs": [
                {
                    "components": [
                        {
                            "internalType": "address",
                            "name": "sender",
                            "type": "address"
                        },
                        {
                            "internalType": "address",
                            "name": "receiver",
                            "type": "address"
                        },
                        {
                            "internalType": "uint256",
                            "name": "amount",
                            "type": "uint256"
                        },
                        {
                            "internalType": "string",
                            "name": "message",
                            "type": "string"
                        },
                        {
                            "internalType": "uint256",
                            "name": "timestamp",
                            "type": "uint256"
                        }
                    ],
                    "internalType": "struct Transactions.TransferStruct[]",
                    "name": "",
                    "type": "tuple[]"
                }
            ],
            "stateMutability": "view",
            "type": "function"
        },
        {
            "inputs": [],
            "name": "getTransactionCount",
            "outputs": [
                {
                    "internalType": "uint256",
                    "name": "",
                    "type": "uint256"
                }
            ],
            "stateMutability": "view",
            "type": "function"
        }
    ],
    "bytecode": "608060405234801561001057600080fd5b506106f3806100206000396000f3fe608060405234801561001057600080fd5b50600436106100415760003560e01c806327506f53146100465780632e7700f014610064578063eb12da4a14610075575b600080fd5b61004e61008a565b60405161005b9190610374565b60405180910390f35b60005460405190815260200161005b565b610088610083366004610430565b6101b3565b005b60606001805480602002602001604051908101604052809291908181526020016000905b828210156101aa5760008481526020908190206040805160a0810182526005860290920180546001600160a01b0390811684526001820154169383019390935260028301549082015260038201805491929160608401919061010f90610509565b80601f016020809104026020016040519081016040528092919081815260200182805461013b90610509565b80156101885780601f1061015d57610100808354040283529160200191610188565b820191906000526020600020905b81548152906001019060200180831161016b57829003601f168201915b50505050508152602001600482015481525050815260200190600101906100ae565b50505050905090565b60016000808282546101c59190610543565b90915550506040805160a0810182523381526001600160a01b038581166020830190815292820185815260608301858152426080850152600180548082018255600091909152845160059091027fb10e2d527612073b26eecdfd717e6a320cf44b4afac2b0732d9fcbe2b7fa0cf6810180549286166001600160a01b031993841617815596517fb10e2d527612073b26eecdfd717e6a320cf44b4afac2b0732d9fcbe2b7fa0cf7820180549190961692169190911790935590517fb10e2d527612073b26eecdfd717e6a320cf44b4afac2b0732d9fcbe2b7fa0cf8830155519192917fb10e2d527612073b26eecdfd717e6a320cf44b4afac2b0732d9fcbe2b7fa0cf9909101906102d690826105b8565b506080820151816004015550507fc4b32d7ff75a51e487f3cbb5d3202f2efecca1f4c2b987e0039c1d3220b48a83338484844260405161031a959493929190610678565b60405180910390a1505050565b6000815180845260005b8181101561034d57602081850181015186830182015201610331565b8181111561035f576000602083870101525b50601f01601f19169290920160200192915050565b60006020808301818452808551808352604092508286019150828160051b87010184880160005b8381101561040c57888303603f19018552815180516001600160a01b039081168552888201511688850152868101518785015260608082015160a082870181905291906103ea83880182610327565b608094850151979094019690965250509487019492509086019060010161039b565b509098975050505050505050565b634e487b7160e01b600052604160045260246000fd5b60008060006060848603121561044557600080fd5b83356001600160a01b038116811461045c57600080fd5b925060208401359150604084013567ffffffffffffffff8082111561048057600080fd5b818601915086601f83011261049457600080fd5b8135818111156104a6576104a661041a565b604051601f8201601f19908116603f011681019083821181831017156104ce576104ce61041a565b816040528281528960208487010111156104e757600080fd5b8260208601602083013760006020848301015280955050505050509250925092565b600181811c9082168061051d57607f821691505b60208210810361053d57634e487b7160e01b600052602260045260246000fd5b50919050565b6000821982111561056457634e487b7160e01b600052601160045260246000fd5b500190565b601f8211156105b357600081815260208120601f850160051c810160208610156105905750805b601f850160051c820191505b818110156105af5782815560010161059c565b5050505b505050565b815167ffffffffffffffff8111156105d2576105d261041a565b6105e6816105e08454610509565b84610569565b602080601f83116001811461061b57600084156106035750858301515b600019600386901b1c1916600185901b1785556105af565b600085815260208120601f198616915b8281101561064a5788860151825594840194600190910190840161062b565b50858210156106685787850151600019600388901b60f8161c191681555b5050505050600190811b01905550565b6001600160a01b038681168252851660208201526040810184905260a0606082018190526000906106ab90830185610327565b9050826080830152969550505050505056fea2646970667358221220509c0b202b2c3d3ac39b239eaa1a84a93852110092a0d6056db54a0acceefcbe64736f6c634300080f0033",
    "sourcePath": "/Users/joowonkim/Documents/GitHub/venmo-dapp/backend/contracts/Transactions.sol",
    "compiler": {
        "name": "solc",
        "version": "0.8.15+commit.e14f2714"
    },
    "functionHashes": {
        "addToBlockchain(address,uint256,string)": "eb12da4a",
        "getAllTransactions()": "27506f53",
        "getTransactionCount()": "2e7700f0"
    },
    "gasEstimates": {
        "creation": {
            "codeDepositCost": "355800",
            "executionCost": "393",
            "totalCost": "356193"
        },
        "external": {
            "addToBlockchain(address,uint256,string)": "infinite",
            "getAllTransactions()": "infinite",
            "getTransactionCount()": "2280"
        }
    }
}